{
  "contractName": "Knack",
  "abi": [
    {
      "inputs": [],
      "stateMutability": "nonpayable",
      "type": "constructor"
    },
    {
      "anonymous": false,
      "inputs": [
        {
          "indexed": false,
          "internalType": "string",
          "name": "artistName",
          "type": "string"
        },
        {
          "indexed": false,
          "internalType": "string",
          "name": "listenerName",
          "type": "string"
        },
        {
          "indexed": false,
          "internalType": "uint256",
          "name": "amount",
          "type": "uint256"
        }
      ],
      "name": "artistDonated",
      "type": "event"
    },
    {
      "anonymous": false,
      "inputs": [
        {
          "indexed": false,
          "internalType": "uint256",
          "name": "songID",
          "type": "uint256"
        },
        {
          "indexed": false,
          "internalType": "string",
          "name": "songName",
          "type": "string"
        },
        {
          "indexed": false,
          "internalType": "string",
          "name": "artistName",
          "type": "string"
        },
        {
          "indexed": false,
          "internalType": "uint256",
          "name": "price",
          "type": "uint256"
        }
      ],
      "name": "songAdded",
      "type": "event"
    },
    {
      "anonymous": false,
      "inputs": [
        {
          "indexed": false,
          "internalType": "uint256",
          "name": "songID",
          "type": "uint256"
        },
        {
          "indexed": false,
          "internalType": "string",
          "name": "songName",
          "type": "string"
        },
        {
          "indexed": false,
          "internalType": "string",
          "name": "listenerName",
          "type": "string"
        },
        {
          "indexed": false,
          "internalType": "uint256",
          "name": "price",
          "type": "uint256"
        }
      ],
      "name": "songPurchased",
      "type": "event"
    },
    {
      "inputs": [],
      "name": "getNumSongs",
      "outputs": [
        {
          "internalType": "uint256",
          "name": "",
          "type": "uint256"
        }
      ],
      "stateMutability": "view",
      "type": "function",
      "constant": true
    },
    {
      "inputs": [],
      "name": "checkUser",
      "outputs": [
        {
          "internalType": "enum Knack.UserType",
          "name": "",
          "type": "uint8"
        }
      ],
      "stateMutability": "view",
      "type": "function",
      "constant": true
    },
    {
      "inputs": [
        {
          "internalType": "string",
          "name": "_name",
          "type": "string"
        }
      ],
      "name": "addNewListener",
      "outputs": [],
      "stateMutability": "nonpayable",
      "type": "function"
    },
    {
      "inputs": [
        {
          "internalType": "string",
          "name": "_name",
          "type": "string"
        }
      ],
      "name": "addNewArtist",
      "outputs": [],
      "stateMutability": "nonpayable",
      "type": "function"
    },
    {
      "inputs": [],
      "name": "getListenerDetails",
      "outputs": [
        {
          "internalType": "string",
          "name": "",
          "type": "string"
        },
        {
          "internalType": "uint256",
          "name": "",
          "type": "uint256"
        },
        {
          "internalType": "uint256[]",
          "name": "",
          "type": "uint256[]"
        }
      ],
      "stateMutability": "view",
      "type": "function",
      "constant": true
    },
    {
      "inputs": [],
      "name": "getArtistDetails",
      "outputs": [
        {
          "internalType": "string",
          "name": "",
          "type": "string"
        },
        {
          "internalType": "uint256",
          "name": "",
          "type": "uint256"
        },
        {
          "internalType": "uint256[]",
          "name": "",
          "type": "uint256[]"
        }
      ],
      "stateMutability": "view",
      "type": "function",
      "constant": true
    },
    {
      "inputs": [
        {
          "internalType": "string",
          "name": "_name",
          "type": "string"
        },
        {
          "internalType": "string",
          "name": "_genre",
          "type": "string"
        },
        {
          "internalType": "string",
          "name": "_hash",
          "type": "string"
        },
        {
          "internalType": "uint256",
          "name": "_price",
          "type": "uint256"
        }
      ],
      "name": "addSong",
      "outputs": [],
      "stateMutability": "nonpayable",
      "type": "function"
    },
    {
      "inputs": [
        {
          "internalType": "uint256",
          "name": "_songID",
          "type": "uint256"
        }
      ],
      "name": "buySong",
      "outputs": [],
      "stateMutability": "payable",
      "type": "function",
      "payable": true
    },
    {
      "inputs": [
        {
          "internalType": "string",
          "name": "artistName",
          "type": "string"
        }
      ],
      "name": "donateArtist",
      "outputs": [],
      "stateMutability": "payable",
      "type": "function",
      "payable": true
    },
    {
      "inputs": [
        {
          "internalType": "uint256",
          "name": "_songID",
          "type": "uint256"
        }
      ],
      "name": "getSongDetails",
      "outputs": [
        {
          "internalType": "string",
          "name": "",
          "type": "string"
        },
        {
          "internalType": "string",
          "name": "",
          "type": "string"
        },
        {
          "internalType": "string",
          "name": "",
          "type": "string"
        },
        {
          "internalType": "string",
          "name": "",
          "type": "string"
        },
        {
          "internalType": "uint256",
          "name": "",
          "type": "uint256"
        },
        {
          "internalType": "uint256",
          "name": "",
          "type": "uint256"
        }
      ],
      "stateMutability": "view",
      "type": "function",
      "constant": true
    }
  ],
  "bytecode": "0x608060405234801561001057600080fd5b506000600281905550600060018190555060008081905550612579806100376000396000f3fe6080604052600436106100915760003560e01c806377822fc21161005957806377822fc21461015c5780637f7a45101461019e578063c1562547146101cb578063dc4b0291146101f6578063f29b41651461021257610091565b80630c58d5b11461009657806342490c4b146100c15780634effb50e146100ea578063606a01751461011757806362efa5f014610133575b600080fd5b3480156100a257600080fd5b506100ab61023b565b6040516100b891906119f1565b60405180910390f35b3480156100cd57600080fd5b506100e860048036038101906100e39190611b66565b610245565b005b3480156100f657600080fd5b506100ff6103cb565b60405161010e93929190611cf5565b60405180910390f35b610131600480360381019061012c9190611d66565b610581565b005b34801561013f57600080fd5b5061015a60048036038101906101559190611b66565b610c28565b005b34801561016857600080fd5b50610183600480360381019061017e9190611d66565b610d14565b60405161019596959493929190611d93565b60405180910390f35b3480156101aa57600080fd5b506101b3610fe5565b6040516101c293929190611cf5565b60405180910390f35b3480156101d757600080fd5b506101e061119b565b6040516101ed9190611e87565b60405180910390f35b610210600480360381019061020b9190611b66565b6111ef565b005b34801561021e57600080fd5b5061023960048036038101906102349190611ea2565b6113fe565b005b6000600254905090565b60018060008282546102579190611f8c565b92505081905550610266611874565b8181600001819052506001548160200181815250503360098360405161028c919061201e565b908152602001604051809103902060006101000a81548173ffffffffffffffffffffffffffffffffffffffff021916908373ffffffffffffffffffffffffffffffffffffffff16021790555080600460003373ffffffffffffffffffffffffffffffffffffffff1673ffffffffffffffffffffffffffffffffffffffff1681526020019081526020016000206000820151816000019080519060200190610334929190611895565b5060208201518160010155604082015181600201908051906020019061035b92919061191b565b509050506001600360003373ffffffffffffffffffffffffffffffffffffffff1673ffffffffffffffffffffffffffffffffffffffff16815260200190815260200160002060006101000a81548160ff021916908360028111156103c2576103c1611e10565b5b02179055505050565b606060006060600560003373ffffffffffffffffffffffffffffffffffffffff1673ffffffffffffffffffffffffffffffffffffffff168152602001908152602001600020600001600560003373ffffffffffffffffffffffffffffffffffffffff1673ffffffffffffffffffffffffffffffffffffffff16815260200190815260200160002060010154600560003373ffffffffffffffffffffffffffffffffffffffff1673ffffffffffffffffffffffffffffffffffffffff1681526020019081526020016000206002018280546104a490612064565b80601f01602080910402602001604051908101604052809291908181526020018280546104d090612064565b801561051d5780601f106104f25761010080835404028352916020019161051d565b820191906000526020600020905b81548152906001019060200180831161050057829003601f168201915b505050505092508080548060200260200160405190810160405280929190818152602001828054801561056f57602002820191906000526020600020905b81548152602001906001019080831161055b575b50505050509050925092509250909192565b60028081111561059457610593611e10565b5b600360003373ffffffffffffffffffffffffffffffffffffffff1673ffffffffffffffffffffffffffffffffffffffff16815260200190815260200160002060009054906101000a900460ff1660028111156105f3576105f2611e10565b5b14610633576040517f08c379a000000000000000000000000000000000000000000000000000000000815260040161062a906120e1565b60405180910390fd5b600560003373ffffffffffffffffffffffffffffffffffffffff1673ffffffffffffffffffffffffffffffffffffffff168152602001908152602001600020600301600082815260200190815260200160002060009054906101000a900460ff16156106d4576040517f08c379a00000000000000000000000000000000000000000000000000000000081526004016106cb9061214d565b60405180910390fd5b6000600660008381526020019081526020016000206040518060e001604052908160008201805461070490612064565b80601f016020809104026020016040519081016040528092919081815260200182805461073090612064565b801561077d5780601f106107525761010080835404028352916020019161077d565b820191906000526020600020905b81548152906001019060200180831161076057829003601f168201915b5050505050815260200160018201805461079690612064565b80601f01602080910402602001604051908101604052809291908181526020018280546107c290612064565b801561080f5780601f106107e45761010080835404028352916020019161080f565b820191906000526020600020905b8154815290600101906020018083116107f257829003601f168201915b5050505050815260200160028201805461082890612064565b80601f016020809104026020016040519081016040528092919081815260200182805461085490612064565b80156108a15780601f10610876576101008083540402835291602001916108a1565b820191906000526020600020905b81548152906001019060200180831161088457829003601f168201915b505050505081526020016003820180546108ba90612064565b80601f01602080910402602001604051908101604052809291908181526020018280546108e690612064565b80156109335780601f1061090857610100808354040283529160200191610933565b820191906000526020600020905b81548152906001019060200180831161091657829003601f168201915b5050505050815260200160048201548152602001600582015481526020016006820160009054906101000a900473ffffffffffffffffffffffffffffffffffffffff1673ffffffffffffffffffffffffffffffffffffffff1673ffffffffffffffffffffffffffffffffffffffff1681525050905060018160a001516109b9919061216d565b34146109fa576040517f08c379a00000000000000000000000000000000000000000000000000000000081526004016109f190612239565b60405180910390fd5b343373ffffffffffffffffffffffffffffffffffffffff163111610a53576040517f08c379a0000000000000000000000000000000000000000000000000000000008152600401610a4a906122a5565b60405180910390fd5b8060c0015173ffffffffffffffffffffffffffffffffffffffff166108fc349081150290604051600060405180830381858888f19350505050158015610a9d573d6000803e3d6000fd5b506001600760008481526020019081526020016000206000828254610ac29190611f8c565b92505081905550600560003373ffffffffffffffffffffffffffffffffffffffff1673ffffffffffffffffffffffffffffffffffffffff1681526020019081526020016000206002018290806001815401808255809150506001900390600052602060002001600090919091909150556001600560003373ffffffffffffffffffffffffffffffffffffffff1673ffffffffffffffffffffffffffffffffffffffff168152602001908152602001600020600301600084815260200190815260200160002060006101000a81548160ff0219169083151502179055507f4d5d3c0b738fd8f4b26fa11966a64c4b072cb5837aadaf02808df71f883a5d5181608001518260000151600560003373ffffffffffffffffffffffffffffffffffffffff1673ffffffffffffffffffffffffffffffffffffffff16815260200190815260200160002060000134604051610c1c949392919061235a565b60405180910390a15050565b6001600080828254610c3a9190611f8c565b925050819055506000600560003373ffffffffffffffffffffffffffffffffffffffff1673ffffffffffffffffffffffffffffffffffffffff168152602001908152602001600020905081816000019080519060200190610c9c929190611895565b5060005481600101819055506002600360003373ffffffffffffffffffffffffffffffffffffffff1673ffffffffffffffffffffffffffffffffffffffff16815260200190815260200160002060006101000a81548160ff02191690836002811115610d0b57610d0a611e10565b5b02179055505050565b6060806060806000806006600088815260200190815260200160002060000160066000898152602001908152602001600020600101600660008a8152602001908152602001600020600201600660008b8152602001908152602001600020600301600660008c815260200190815260200160002060050154600760008d815260200190815260200160002054858054610dac90612064565b80601f0160208091040260200160405190810160405280929190818152602001828054610dd890612064565b8015610e255780601f10610dfa57610100808354040283529160200191610e25565b820191906000526020600020905b815481529060010190602001808311610e0857829003601f168201915b50505050509550848054610e3890612064565b80601f0160208091040260200160405190810160405280929190818152602001828054610e6490612064565b8015610eb15780601f10610e8657610100808354040283529160200191610eb1565b820191906000526020600020905b815481529060010190602001808311610e9457829003601f168201915b50505050509450838054610ec490612064565b80601f0160208091040260200160405190810160405280929190818152602001828054610ef090612064565b8015610f3d5780601f10610f1257610100808354040283529160200191610f3d565b820191906000526020600020905b815481529060010190602001808311610f2057829003601f168201915b50505050509350828054610f5090612064565b80601f0160208091040260200160405190810160405280929190818152602001828054610f7c90612064565b8015610fc95780601f10610f9e57610100808354040283529160200191610fc9565b820191906000526020600020905b815481529060010190602001808311610fac57829003601f168201915b5050505050925095509550955095509550955091939550919395565b606060006060600460003373ffffffffffffffffffffffffffffffffffffffff1673ffffffffffffffffffffffffffffffffffffffff168152602001908152602001600020600001600460003373ffffffffffffffffffffffffffffffffffffffff1673ffffffffffffffffffffffffffffffffffffffff16815260200190815260200160002060010154600460003373ffffffffffffffffffffffffffffffffffffffff1673ffffffffffffffffffffffffffffffffffffffff1681526020019081526020016000206002018280546110be90612064565b80601f01602080910402602001604051908101604052809291908181526020018280546110ea90612064565b80156111375780601f1061110c57610100808354040283529160200191611137565b820191906000526020600020905b81548152906001019060200180831161111a57829003601f168201915b505050505092508080548060200260200160405190810160405280929190818152602001828054801561118957602002820191906000526020600020905b815481526020019060010190808311611175575b50505050509050925092509250909192565b6000600360003373ffffffffffffffffffffffffffffffffffffffff1673ffffffffffffffffffffffffffffffffffffffff16815260200190815260200160002060009054906101000a900460ff16905090565b60028081111561120257611201611e10565b5b600360003373ffffffffffffffffffffffffffffffffffffffff1673ffffffffffffffffffffffffffffffffffffffff16815260200190815260200160002060009054906101000a900460ff16600281111561126157611260611e10565b5b146112a1576040517f08c379a0000000000000000000000000000000000000000000000000000000008152600401611298906120e1565b60405180910390fd5b343373ffffffffffffffffffffffffffffffffffffffff1631116112fa576040517f08c379a00000000000000000000000000000000000000000000000000000000081526004016112f1906122a5565b60405180910390fd5b60098160405161130a919061201e565b908152602001604051809103902060009054906101000a900473ffffffffffffffffffffffffffffffffffffffff1673ffffffffffffffffffffffffffffffffffffffff166108fc349081150290604051600060405180830381858888f1935050505015801561137e573d6000803e3d6000fd5b507f19fc7073cff31b76fe0bf3c801e7fe11652310c62d0c225a9995a5d30940c64881600560003373ffffffffffffffffffffffffffffffffffffffff1673ffffffffffffffffffffffffffffffffffffffff168152602001908152602001600020600001346040516113f3939291906123ad565b60405180910390a150565b6001600281111561141257611411611e10565b5b600360003373ffffffffffffffffffffffffffffffffffffffff1673ffffffffffffffffffffffffffffffffffffffff16815260200190815260200160002060009054906101000a900460ff16600281111561147157611470611e10565b5b146114b1576040517f08c379a00000000000000000000000000000000000000000000000000000000081526004016114a89061243e565b60405180910390fd5b6008826040516114c1919061201e565b908152602001604051809103902060009054906101000a900460ff161561151d576040517f08c379a0000000000000000000000000000000000000000000000000000000008152600401611514906124d0565b60405180910390fd5b6001600260008282546115309190611f8c565b9250508190555061153f611968565b600254816080018181525050848160000181905250600460003373ffffffffffffffffffffffffffffffffffffffff1673ffffffffffffffffffffffffffffffffffffffff16815260200190815260200160002060000180546115a190612064565b80601f01602080910402602001604051908101604052809291908181526020018280546115cd90612064565b801561161a5780601f106115ef5761010080835404028352916020019161161a565b820191906000526020600020905b8154815290600101906020018083116115fd57829003601f168201915b50505050508160200181905250838160400181905250828160600181905250818160a0018181525050338160c0019073ffffffffffffffffffffffffffffffffffffffff16908173ffffffffffffffffffffffffffffffffffffffff16815250506000600760006002548152602001908152602001600020819055508060066000600254815260200190815260200160002060008201518160000190805190602001906116c8929190611895565b5060208201518160010190805190602001906116e5929190611895565b506040820151816002019080519060200190611702929190611895565b50606082015181600301908051906020019061171f929190611895565b506080820151816004015560a0820151816005015560c08201518160060160006101000a81548173ffffffffffffffffffffffffffffffffffffffff021916908373ffffffffffffffffffffffffffffffffffffffff160217905550905050600460003373ffffffffffffffffffffffffffffffffffffffff1673ffffffffffffffffffffffffffffffffffffffff168152602001908152602001600020600201600254908060018154018082558091505060019003906000526020600020016000909190919091505560016008846040516117fb919061201e565b908152602001604051809103902060006101000a81548160ff0219169083151502179055507f8c6d5283b06a4f84805865678e0a51043ab4788bdd609db7c5cbe4c6fce5c97f8160800151826000015183602001518460a0015160405161186594939291906124f0565b60405180910390a15050505050565b60405180606001604052806060815260200160008152602001606081525090565b8280546118a190612064565b90600052602060002090601f0160209004810192826118c3576000855561190a565b82601f106118dc57805160ff191683800117855561190a565b8280016001018555821561190a579182015b828111156119095782518255916020019190600101906118ee565b5b50905061191791906119bb565b5090565b828054828255906000526020600020908101928215611957579160200282015b8281111561195657825182559160200191906001019061193b565b5b50905061196491906119bb565b5090565b6040518060e00160405280606081526020016060815260200160608152602001606081526020016000815260200160008152602001600073ffffffffffffffffffffffffffffffffffffffff1681525090565b5b808211156119d45760008160009055506001016119bc565b5090565b6000819050919050565b6119eb816119d8565b82525050565b6000602082019050611a0660008301846119e2565b92915050565b6000604051905090565b600080fd5b600080fd5b600080fd5b600080fd5b6000601f19601f8301169050919050565b7f4e487b7100000000000000000000000000000000000000000000000000000000600052604160045260246000fd5b611a7382611a2a565b810181811067ffffffffffffffff82111715611a9257611a91611a3b565b5b80604052505050565b6000611aa5611a0c565b9050611ab18282611a6a565b919050565b600067ffffffffffffffff821115611ad157611ad0611a3b565b5b611ada82611a2a565b9050602081019050919050565b82818337600083830152505050565b6000611b09611b0484611ab6565b611a9b565b905082815260208101848484011115611b2557611b24611a25565b5b611b30848285611ae7565b509392505050565b600082601f830112611b4d57611b4c611a20565b5b8135611b5d848260208601611af6565b91505092915050565b600060208284031215611b7c57611b7b611a16565b5b600082013567ffffffffffffffff811115611b9a57611b99611a1b565b5b611ba684828501611b38565b91505092915050565b600081519050919050565b600082825260208201905092915050565b60005b83811015611be9578082015181840152602081019050611bce565b83811115611bf8576000848401525b50505050565b6000611c0982611baf565b611c138185611bba565b9350611c23818560208601611bcb565b611c2c81611a2a565b840191505092915050565b600081519050919050565b600082825260208201905092915050565b6000819050602082019050919050565b611c6c816119d8565b82525050565b6000611c7e8383611c63565b60208301905092915050565b6000602082019050919050565b6000611ca282611c37565b611cac8185611c42565b9350611cb783611c53565b8060005b83811015611ce8578151611ccf8882611c72565b9750611cda83611c8a565b925050600181019050611cbb565b5085935050505092915050565b60006060820190508181036000830152611d0f8186611bfe565b9050611d1e60208301856119e2565b8181036040830152611d308184611c97565b9050949350505050565b611d43816119d8565b8114611d4e57600080fd5b50565b600081359050611d6081611d3a565b92915050565b600060208284031215611d7c57611d7b611a16565b5b6000611d8a84828501611d51565b91505092915050565b600060c0820190508181036000830152611dad8189611bfe565b90508181036020830152611dc18188611bfe565b90508181036040830152611dd58187611bfe565b90508181036060830152611de98186611bfe565b9050611df860808301856119e2565b611e0560a08301846119e2565b979650505050505050565b7f4e487b7100000000000000000000000000000000000000000000000000000000600052602160045260246000fd5b60038110611e5057611e4f611e10565b5b50565b6000819050611e6182611e3f565b919050565b6000611e7182611e53565b9050919050565b611e8181611e66565b82525050565b6000602082019050611e9c6000830184611e78565b92915050565b60008060008060808587031215611ebc57611ebb611a16565b5b600085013567ffffffffffffffff811115611eda57611ed9611a1b565b5b611ee687828801611b38565b945050602085013567ffffffffffffffff811115611f0757611f06611a1b565b5b611f1387828801611b38565b935050604085013567ffffffffffffffff811115611f3457611f33611a1b565b5b611f4087828801611b38565b9250506060611f5187828801611d51565b91505092959194509250565b7f4e487b7100000000000000000000000000000000000000000000000000000000600052601160045260246000fd5b6000611f97826119d8565b9150611fa2836119d8565b9250827fffffffffffffffffffffffffffffffffffffffffffffffffffffffffffffffff03821115611fd757611fd6611f5d565b5b828201905092915050565b600081905092915050565b6000611ff882611baf565b6120028185611fe2565b9350612012818560208601611bcb565b80840191505092915050565b600061202a8284611fed565b915081905092915050565b7f4e487b7100000000000000000000000000000000000000000000000000000000600052602260045260246000fd5b6000600282049050600182168061207c57607f821691505b60208210810361208f5761208e612035565b5b50919050565b7f4e6f742061206c697374656e65722070726f66696c652e000000000000000000600082015250565b60006120cb601783611bba565b91506120d682612095565b602082019050919050565b600060208201905081810360008301526120fa816120be565b9050919050565b7f536f6e6720616c7265616479207075726368617365642e000000000000000000600082015250565b6000612137601783611bba565b915061214282612101565b602082019050919050565b600060208201905081810360008301526121668161212a565b9050919050565b6000612178826119d8565b9150612183836119d8565b9250817fffffffffffffffffffffffffffffffffffffffffffffffffffffffffffffffff04831182151516156121bc576121bb611f5d565b5b828202905092915050565b7f416d6f756e7420706179656420646f6573206e6f74206d61746368207072696360008201527f65206f662074686520736f6e672e000000000000000000000000000000000000602082015250565b6000612223602e83611bba565b915061222e826121c7565b604082019050919050565b6000602082019050818103600083015261225281612216565b9050919050565b7f496e73756666696369656e742062616c616e636520746f2070726f636565642e600082015250565b600061228f602083611bba565b915061229a82612259565b602082019050919050565b600060208201905081810360008301526122be81612282565b9050919050565b60008190508160005260206000209050919050565b600081546122e781612064565b6122f18186611bba565b9450600182166000811461230c576001811461231e57612351565b60ff1983168652602086019350612351565b612327856122c5565b60005b838110156123495781548189015260018201915060208101905061232a565b808801955050505b50505092915050565b600060808201905061236f60008301876119e2565b81810360208301526123818186611bfe565b9050818103604083015261239581856122da565b90506123a460608301846119e2565b95945050505050565b600060608201905081810360008301526123c78186611bfe565b905081810360208301526123db81856122da565b90506123ea60408301846119e2565b949350505050565b7f4e6f7420616e206172746973742e000000000000000000000000000000000000600082015250565b6000612428600e83611bba565b9150612433826123f2565b602082019050919050565b600060208201905081810360008301526124578161241b565b9050919050565b7f4475706c6963617465206861736820686173206265656e20646574656374656460008201527f2e00000000000000000000000000000000000000000000000000000000000000602082015250565b60006124ba602183611bba565b91506124c58261245e565b604082019050919050565b600060208201905081810360008301526124e9816124ad565b9050919050565b600060808201905061250560008301876119e2565b81810360208301526125178186611bfe565b9050818103604083015261252b8185611bfe565b905061253a60608301846119e2565b9594505050505056fea2646970667358221220f25617fc54f576e40c85a45a54eb64a5c416a6a600f8a74e91bd7492773bf21b64736f6c634300080d0033",
  "immutableReferences": {},
  "source": "// SPDX-License-Identifier: MIT\npragma solidity >=0.4.22 <0.9.0;\n\ncontract Knack {\n    // defining trackers\n    uint256 listenerIDTracker;\n    uint256 artistIDTracker;\n    uint256 songIDTracker;\n\n    // usertypes\n    enum UserType {\n        UNDEFINED,\n        ARTIST,\n        LISTENER\n    }\n\n    // defining users\n    struct Artist {\n        string name;\n        uint256 artistID;\n        uint256[] songsPublished;\n    }\n\n    struct Listener {\n        string name;\n        uint256 listenerID;\n        uint256[] songsPurchased;\n        mapping(uint256 => bool) isSongPurchased;\n    }\n\n    // defining song struct\n    struct Song {\n        string songName;\n        string artistName;\n        string genre;\n        string hash;\n        uint256 songID;\n        uint256 price;\n        address payable artistAddress;\n    }\n\n    // mappings\n    mapping(address => UserType) identifyUser;\n    mapping(address => Artist) allArtists;\n    mapping(address => Listener) allListeners;\n    mapping(uint256 => Song) allSongs;\n    mapping(uint256 => uint256) timesSongPurchased;\n    mapping(string => bool) songHashUsed;\n    mapping(string => address payable) getArtistAddress;\n\n    // methods\n    constructor() {\n        songIDTracker = 0;\n        artistIDTracker = 0;\n        listenerIDTracker = 0;\n    }\n\n    function getNumSongs() public view returns (uint256) {\n        return songIDTracker;\n    }\n\n    function checkUser() public view returns (UserType) {\n        return identifyUser[msg.sender];\n    }\n\n    // create users\n    function addNewListener(string memory _name) public {\n        listenerIDTracker += 1;\n\n        Listener storage newListener = allListeners[msg.sender];\n        newListener.name = _name;\n        newListener.listenerID = listenerIDTracker;\n\n        identifyUser[msg.sender] = UserType.LISTENER;\n    }\n\n    function addNewArtist(string memory _name) public {\n        artistIDTracker += 1;\n\n        Artist memory newArtist;\n        newArtist.name = _name;\n        newArtist.artistID = artistIDTracker;\n        getArtistAddress[_name] = payable(msg.sender);\n\n        allArtists[msg.sender] = newArtist;\n        identifyUser[msg.sender] = UserType.ARTIST;\n    }\n\n    // fetch user details\n    function getListenerDetails()\n        public\n        view\n        returns (\n            string memory,\n            uint256,\n            uint256[] memory\n        )\n    {\n        return (\n            allListeners[msg.sender].name,\n            allListeners[msg.sender].listenerID,\n            allListeners[msg.sender].songsPurchased\n        );\n    }\n\n    function getArtistDetails()\n        public\n        view\n        returns (\n            string memory,\n            uint256,\n            uint256[] memory\n        )\n    {\n        return (\n            allArtists[msg.sender].name,\n            allArtists[msg.sender].artistID,\n            allArtists[msg.sender].songsPublished\n        );\n    }\n\n    // create song\n    event songAdded(\n        uint256 songID,\n        string songName,\n        string artistName,\n        uint256 price\n    );\n\n    function addSong(\n        string memory _name,\n        string memory _genre,\n        string memory _hash,\n        uint256 _price\n    ) public {\n        require(identifyUser[msg.sender] == UserType.ARTIST, \"Not an artist.\");\n        require(!songHashUsed[_hash], \"Duplicate hash has been detected.\");\n\n        songIDTracker += 1;\n\n        Song memory newSong;\n        newSong.songID = songIDTracker;\n        newSong.songName = _name;\n        newSong.artistName = allArtists[msg.sender].name;\n        newSong.genre = _genre;\n        newSong.hash = _hash;\n        newSong.price = _price;\n        newSong.artistAddress = payable(msg.sender);\n\n        timesSongPurchased[songIDTracker] = 0;\n\n        allSongs[songIDTracker] = newSong;\n        allArtists[msg.sender].songsPublished.push(songIDTracker);\n        songHashUsed[_hash] = true;\n\n        emit songAdded(\n            newSong.songID,\n            newSong.songName,\n            newSong.artistName,\n            newSong.price\n        );\n    }\n\n    // buy song\n    event songPurchased(\n        uint256 songID,\n        string songName,\n        string listenerName,\n        uint256 price\n    );\n\n    function buySong(uint256 _songID) public payable {\n        require(\n            identifyUser[msg.sender] == UserType.LISTENER,\n            \"Not a listener profile.\"\n        );\n        require(\n            !allListeners[msg.sender].isSongPurchased[_songID],\n            \"Song already purchased.\"\n        );\n\n        Song memory curSong = allSongs[_songID];\n\n        require(\n            msg.value == (curSong.price * 1 wei),\n            \"Amount payed does not match price of the song.\"\n        );\n        require(\n            msg.sender.balance > msg.value,\n            \"Insufficient balance to proceed.\"\n        );\n\n        curSong.artistAddress.transfer(msg.value);\n        timesSongPurchased[_songID] += 1;\n\n        allListeners[msg.sender].songsPurchased.push(_songID);\n        allListeners[msg.sender].isSongPurchased[_songID] = true;\n\n        emit songPurchased(\n            curSong.songID,\n            curSong.songName,\n            allListeners[msg.sender].name,\n            msg.value\n        );\n    }\n\n    // support artist by donation\n    event artistDonated(string artistName, string listenerName, uint256 amount);\n\n    function donateArtist(string memory artistName) public payable {\n        require(\n            identifyUser[msg.sender] == UserType.LISTENER,\n            \"Not a listener profile.\"\n        );\n        require(\n            msg.sender.balance > msg.value,\n            \"Insufficient balance to proceed.\"\n        );\n\n        getArtistAddress[artistName].transfer(msg.value);\n\n        emit artistDonated(\n            artistName,\n            allListeners[msg.sender].name,\n            msg.value\n        );\n    }\n\n    // fetch song details\n    function getSongDetails(uint256 _songID)\n        public\n        view\n        returns (\n            string memory,\n            string memory,\n            string memory,\n            string memory,\n            uint256,\n            uint256\n        )\n    {\n        return (\n            allSongs[_songID].songName,\n            allSongs[_songID].artistName,\n            allSongs[_songID].genre,\n            allSongs[_songID].hash,\n            allSongs[_songID].price,\n            timesSongPurchased[_songID]\n        );\n    }\n}\n",
  "sourcePath": "/home/nishavak/Documents/Codeshastra/Knack/contracts/Knack.sol",
  "compiler": {
    "name": "solc",
    "version": "0.8.13+commit.abaa5c0e.Emscripten.clang"
  },
  "schemaVersion": "3.4.6",
  "updatedAt": "2022-03-27T05:21:03.683Z",
  "networkType": "ethereum",
  "devdoc": {
    "kind": "dev",
    "methods": {},
    "version": 1
  },
  "userdoc": {
    "kind": "user",
    "methods": {},
    "version": 1
  }
}